:0300000002040BEC
:0C040B00787FE4F6D8FD75812F020452C2
:080003001204971202B280FB07
:1004970012001E12089ED2D9E4F51BF51CAE1BE50F
:1004A7001C7802C333CE33CED8F9FF2436F58274D5
:1004B700003EF583E51BF0A3E51CF0451B701A749D
:1004C700392FF58274003EF583745BF074382FF58D
:1004D7008274003EF583745AF074362FF974003E27
:1004E700FA7B0112002E051CE51C7002051BC39444
:1004F70001E51B6480948040A4439280900006E04D
:1005070044BFFFF07B017A007936900038E0FD8F19
:0A0517002112069D12085A02084343
:0A000E008F9FE51A60FCE4F51A224A
:03001800AF9F2275
:1002B20030970302036A900039E0FD751F01752033
:1002C200007521047B017A007936120652900004EF
:1002D200E024FE603624FE603E24FC604624F86082
:1002E2004E24F06056241F705E900008E0640160A6
:1002F200777401F0FB7A0079127F647E007D007CC6
:10030200001207D89000017401F022900008E06406
:100312000260557402F022900008E064046049749F
:1003220004F022900008E06408603D7408F0229016
:100332000008E0641060317410F022900008E0645C
:100342002060257420F022900008E0601BE4F07B1E
:10035200017A007936900038E0FD900006E0F52140
:0903620012069DE4900001F02256
:03000B000206E00A
:1006E000C0E0C0F0C083C082C0D075D000C000C0E0
:1006F00001C002C003C004C005C006C007758A1847
:10070000758CFC120829D007D006D005D004D00380
:10071000D002D001D000D0D0D082D083D0F0D0E0B1
:0107200032A6
:03001B0002089741
:07089700758B40758DA23244
:03002B00020028A8
:03002800C2CF3212
:03003B000207F4C5
:1007F400C0E0E59D30E106539DFD751A01E59D308D
:0B080400E006539DFE750801D0E032B5
:03003B0002077940
:0A077900C0E0E59D5407640270091A
:07078300859F28E528645A58
:10078A00800DE59D54076403700520A102D2A15390
:05079A009DBFD0E0321C
:07089E0043D90253DAFD22E9
:10085A00E4F58E758911758A18758CFCC28CD2A93B
:03086A00D28C220B
:10084300E4758FC0759D50759E4EF59575A901434E
:06085300A101D2A0D2AF0A
:01085900227C
:0400370043A10222BD
:10086D00758F80759E5A759D8843A901120037D2E8
:02087D00A122B6
:0F087F00EF4E70064391304390307E007F012290
:10080F00EF4E7012ED4C70055391DF8009ED6401CE
:0A081F004C7003439120E4FEFF2219
:10075100EF4E7020ED4C700CEB4A6004D295801482
:10076100C2958010ED64014C700AEB4A6004D2948A
:080771008002C294E4FEFF22A5
:1007BC00EF4E7014ED4C7004A2958008ED64014C62
:0C07CC007006A294FE33FF22E4FEFF2220
:03079F00E4FFFE76
:1007A200EF1FAA0670011E4A600FE4FDEDD394000C
:0907B2007480948040EA1D80F37C
:0107BB00221B
:09002E00120050FFAEF002087F41
:10058F008B228A238924120050FFAEF07B017A0060
:10059F00E4FDFC12075112079FAB22AA23A92412D4
:1005AF000050FFAEF07B017A007D017C00120751F5
:1005BF0012079FAB22AA23A924120050FFAEF0E42A
:1005CF00FBFAFDFC120751E4FFFE1207A2AB22AAB1
:1005DF0023A924120050FFAEF0E4FBFA7D01FC12B8
:0805EF000751E4FFFE0207A220
:0601A800AB1DAA1EA91FF9
:0801AE008B228A2389248D2590
:1001B600E4F526C3E526940874809480506EE52500
:1001C600AB22AA23A92430E70D120050FFAEF07B24
:1001D600017A00E48009120050FFAEF0E4FBFAFD5C
:1001E600FC120751E52525E0F525E4FFFE1207A2DE
:1001F600AB22AA23A924120050FFAEF07B017A009D
:100206007D017C00120751E4FFFE1207A2AB22AA71
:1002160023A924120050FFAEF0E4FBFA7D01FC1284
:100226000751E4FFFE1207A205268087AB22AA2308
:10023600A924120050FFAEF0E4FDFC12080FAB2219
:10024600AA23A924120050FFAEF07B017A007D019B
:100256007C00120751E4FFFE1207A2AB22AA23A9D3
:1002660024120050FFAEF0E4FDFC1207BCEF4E6016
:1002760005E4F5278003752701AB22AA23A92412DA
:100286000050FFAEF0E4FBFA7D01FC120751E4FFDB
:10029600FE1207A2AB22AA23A924120050FFAEF039
:0B02A6007D017C0012080FAF277E00D6
:0102B100222A
:1005F7008B228A238924120050FFAEF0E4FBFA7D98
:1006070001FC120751E4FFFE1207A2AB22AA23A99D
:1006170024120050FFAEF07B017A007D017C0012AE
:100627000751E4FFFE1207A2AB22AA23A924120056
:1006370050FFAEF07B017A00E4FDFC120751E4FFA6
:0B064700FE1207A27FE87E030207A25C
:100521008B228A238924120050FFAEF07B017A00CE
:10053100E4FDFC120751E4FFFE1207A2AB22AA233D
:10054100A924120050FFAEF07B017A007D017C00EE
:10055100120751E4FFFE1207A2AB22AA23A924121B
:100561000050FFAEF0E4FBFA7D01FC120751E4FFFD
:10057100FE1207A2AB22AA23A924120050FFAEF05B
:0E058100E4FBFAFDFC120751E4FFFE0207A2A4
:06036B008B228A23892485
:10037100E4F525120050FFAEF0E4FDFC12080FE495
:10038100FFFE1207A2E4F526C3E5269408748094C3
:10039100805061AB22AA23A924120050FFAEF07B4A
:1003A100017A007D017C00120751E4FFFE1207A2D1
:1003B100AB22AA23A924120050FFAEF0E4FDFC12E7
:1003C10007BCEF4E600FAF26A8077480088002C3F8
:1003D10013D8FC4225AB22AA23A924120050FFAE58
:1003E100F0E4FBFA7D01FC120751E4FFFE1207A2C3
:1003F10005268094AB22AA23A924120050FFAEF057
:090401007D017C0012080FAF25FB
:01040A0022CF
:100652008D1E8B1B8A1C891D12058FAB1BAA1CA920
:100662001DAD1E1201AEEF4EAB1BAA1CA91D7007D9
:100672001205F7E4FEFF2212036BAB1FAA20A92189
:10068200EF12003EAB1BAA1CA91D120521AB1BAA2F
:0B0692001CA91D1205F77E007F01224D
:10069D008D208B1D8A1E891F12058FAD201201A87A
:1006AD00EF4E7008AB1DAA1EA91F800FAD211201C0
:1006BD00A8EF4EAB1DAA1EA91F70071205F7E4FE89
:1006CD00FF22120521AB1DAA1EA91F1205F77E00E0
:0306DD007F012278
:0608A50004290000000020
:0A001E00E4F52CF52BF52AF5292254
:10082900AF2CAE2BAD2AAC29EF2401F52CE43EF513
:0A0839002BE43DF52AE43CF52922EA
:09088E00AF2CAE2BAD2AAC2922DF
:1007D8008F1E8E1D8D1C8C1B12088E1200BCAF1E26
:0C07E800AE1DAD1CAC1B9000040200D63E
:100721008B2D8A2E892F90000412008C1200FAC39F
:10073100E52C9BFBE52B9AFAE52A99F9E52998F82E
:10074100C312007BE440047F018001FFFEFDFC2217
:10041700020003E493A3F8E493A34003F68001F2F8
:1004270008DFF48029E493A3F85407240CC8C333E6
:10043700C4540F4420C8834004F456800146F6DFB5
:10044700E4800B01020408102040809008A5E47E98
:10045700019360BCA3FF543F30E509541FFEE493AA
:10046700A360010ECF54C025E060A840B8E493A371
:10047700FAE493A3F8E493A3C8C582C8CAC583CA9C
:10048700F0A3C8C582C8CAC583CADFE9DEE780BE54
:0108AB00004C
:10003E00BB010689828A83F0225002F722BBFE01A1
:02004E00F3229B
:10005000BB010A89828A83E0F5F0A3E0225006877B
:10006000F009E71922BBFE07E3F5F009E31922893D
:0B007000828A83E493F5F07401932270
:10007B00EB9FF5F0EA9E42F0E99D42F0E89C45F0DB
:01008B002252
:10008C00BB010DE58229F582E5833AF58302012651
:10009C005007E92582F802011ABBFE07E92582F810
:1000AC00020132E58229F582E5833AF58302013EAD
:1000BC00BB010789828A830201905005E9F802018D
:0A00CC0084BBFE05E9F802019C2246
:1000D600BB010DE58229F582E5833AF5830201909D
:1000E6005007E92582F8020184BBFE07E92582F85C
:0400F60002019C2245
:1000FA00BB010789828A8302015B5005E9F8020184
:10010A004EBBFE05E9F802016789828A83020174FF
:0C011A00E6FC08E6FD08E6FE08E6FF2211
:0C012600E0FCA3E0FDA3E0FEA3E0FF224C
:0C013200E2FC08E2FD08E2FE08E2FF2209
:10013E00E493FC740193FD740293FE740393FF2207
:0D014E00E6FB08E6F908E6FA08E6CBF82221
:0C015B00E0F8A3E0F9A3E0FAA3E0FB2227
:0D016700E2FB08E2F908E2FA08E2CBF82218
:10017400E493F8740193F9740293FA740393FB22E1
:0C018400ECF608EDF608EEF608EFF622A7
:0C019000ECF0A3EDF0A3EEF0A3EFF022E2
:0C019C00ECF208EDF208EEF208EFF2229F
:00000001FF
