:0300000002016B8F
:0C016B00787FE4F6D8FD7581240201B213
:0800030012031E12023880FBFB
:0E031E0012001E120333D2D912030B0202F496
:0A000E008F9FE51C60FCE4F51C2246
:03001800AF9F2275
:10023800120018EF64777002C2D97B007A00790C3B
:10024800120273EC4D4E4F60217B007A00790C7FCF
:10025800647E007D007C001202A30509E509700296
:0A026800050830E0057F5512000E76
:010272002269
:03000B000201F7F8
:1001F700C0E0C0F0C083C082C0D075D000C000C0CE
:1002070001C002C003C004C005C006C007758A1834
:10021700758CFC1202DAD007D006D005D004D003C3
:10022700D002D001D000D0D0D082D083D0F0D0E09F
:010237003294
:03001B0002032CB1
:07032C00758B40758DA232B4
:03002B00020028A8
:03002800C2CF3212
:03003B000202BFFF
:1002BF00C0E0E59D30E106539DFD751C01E59D30C5
:0B02CF00E006539DFE750A01D0E032EE
:0703330043D90253DAFD2259
:10030B00E4F58E758911758A18758CFCC28CD2A98F
:03031B00D28C225F
:1002F400E4758FC0759D50759E4EF59575A90143A3
:06030400A101D2A0D2AF5E
:01030A0022D0
:06033A00041D000000009C
:0A001E00E4F520F51FF51EF51D2284
:1002DA00AF20AE1FAD1EAC1DEF2401F520E43EF5A4
:0A02EA001FE43DF51EE43CF51D2263
:09002E00AF20AE1FAD1EAC1D2277
:1002A3008F248E238D228C2112002E12007FAF24E7
:0C02B300AE23AD22AC21900004020099A3
:100273008B218A22892390000412004F1200BDC3F0
:10028300E5209BFBE51F9AFAE51E99F9E51D98F811
:10029300C312003EE440047F018001FFFEFDFC2207
:10017700020003E493A3F8E493A34003F68001F29B
:1001870008DFF48029E493A3F85407240CC8C33389
:10019700C4540F4420C8834004F456800146F6DF58
:1001A700E4800B010204081020408090033AE47EAB
:1001B700019360BCA3FF543F30E509541FFEE4934D
:1001C700A360010ECF54C025E060A840B8E493A314
:1001D700FAE493A3F8E493A3C8C582C8CAC583CA3F
:1001E700F0A3C8C582C8CAC583CADFE9DEE780BEF7
:0103400000BC
:10003E00EB9FF5F0EA9E42F0E99D42F0E89C45F018
:01004E00228F
:10004F00BB010DE58229F582E5833AF5830200E9CC
:10005F005007E92582F80200DDBBFE07E92582F88B
:10006F000200F5E58229F582E5833AF58302010165
:10007F00BB010789828A830201535005E9F8020107
:0A008F0047BBFE05E9F802015F22FD
:10009900BB010DE58229F582E5833AF58302015317
:1000A9005007E92582F8020147BBFE07E92582F8D6
:0400B90002015F22BF
:1000BD00BB010789828A8302011E5005E9F80201FE
:1000CD0011BBFE05E9F802012A89828A83020137F4
:0C00DD00E6FC08E6FD08E6FE08E6FF224F
:0C00E900E0FCA3E0FDA3E0FEA3E0FF228A
:0C00F500E2FC08E2FD08E2FE08E2FF2247
:10010100E493FC740193FD740293FE740393FF2244
:0D011100E6FB08E6F908E6FA08E6CBF8225E
:0C011E00E0F8A3E0F9A3E0FAA3E0FB2264
:0D012A00E2FB08E2F908E2FA08E2CBF82255
:10013700E493F8740193F9740293FA740393FB221E
:0C014700ECF608EDF608EEF608EFF622E4
:0C015300ECF0A3EDF0A3EEF0A3EFF0221F
:0C015F00ECF208EDF208EEF208EFF222DC
:00000001FF
